S011000045464D33325F426173652E733337CC
S113000000000220110500003D0500003D05000030
S11300103D0500003D0500003D0500003D050000D4
S11300203D0500003D0500003D050000D10B00002A
S11300303D0500003C050000710D0000B90D0000F5
S11300403D0500003D0500003D0500003D050000A4
S11300503D0500003D0500003D0500003D05000094
S11300603D0500003D0500003D0500003D05000084
S11300703D0500003D0500003D0500003D05000074
S11300803D0500003D0500003D0500003D05000064
S11300903D0500003D0500003D0500003D05000054
S11300A03D0500003D0500003D0500003D05000044
S11300B03D0500003D0500003D0500003D4C0000ED
S11300C03D0500003D0500003D0500003D05000024
S11300D03D0500003D0500003D05000010B5054C40
S11300E0237833B9044B13B10448AFF300800123E0
S11300F0237010BD7C000020000000009070000000
S113010008B5034B1BB103490348AFF3008008BD96
S1130110000000008000002090700000154B002BB0
S113012008BF134B9D46A3F5803A00218B460F462A
S11301301348144A121A05F00AFE0F4B002B00D084
S113014098470E4B002B00D0984700200021040054
S11301500D000D48002802D00C48AFF3008005F0D4
S1130160C7FD2000290005F007F805F0ADFD00BF2C
S11301700000080000000220000000000000000051
S11301807C0000208C2500200000000000000000FE
S113019080B483B000AF78604FF06043D3F8803E02
S11301A003F00103002B13D04FF06043D3F8003E5B
S11301B003F00103002B0BD000E000BF4FF06043BD
S11301C01B68002BF9D04FF060437A68D2B21A70E2
S11301D07B6818460C37BD4680BC704780B400AFBE
S11301E0334B5B6C324A43F400535364314BD3F8C2
S11301F02031304A43F00403C2F820312D4BD3F8A8
S113020020312C4A23F44073C2F82031294BD3F80F
S1130210B830284A23F47063C2F8B830254BD3F8B9
S1130220B830244A43F48063C2F8B830204B10221B
S11302301A6200BF1E4BDB6A03F02003002BF9D0C7
S11302401D4BDB681C4A43F08073D3604FF060435E
S11302501A4AC3F8B02F4FF060430022C3F8002EAF
S11302604FF060430022C3F8802E154B0222C3F8DE
S1130270F020134B0F221A614FF060430022C3F8A1
S1130280402E104B104A1A604FF060430F4AC3F8D7
S1130290802E0B4B4FF48072C3F804234FF060435D
S11302A00122C3F8002E00BFBD4680BC704700BFCA
S11302B000800C4000600040F0ED00E055CEACC57D
S11302C0000004E0001000E0FE0300400D00010007
S11302D080B586B000AFF860B9607A6000237B61B6
S11302E009E0BB685A1CBA601B781846FFF750FF38
S11302F07B6901337B617A697B689A42F1DB7B68B5
S113030018461837BD4680BD80B582B000AF03469D
S11303103960FB71FB79002B1FD0FB79012B19D0BD
S1130320FB79022B13D0FB79032B0DD0FB79042B23
S113033007D0FB79052B02D141F6FF730FE00023B0
S11303400DE04FF6FF730AE04FF6FF7307E04FF638
S1130350FF7304E04FF6FF7301E04FF6FF733A6852
S1130360134103F00103002B04D14FF477710A48C1
S113037002F046FB01223B6802FA03F30749FA79CB
S113038018461346DB0013449B000B4414331860D7
S113039000BF0837BD4680BD386C000000600040D7
S11303A080B582B000AF03463960FB71FB79002B46
S11303B01FD0FB79012B19D0FB79022B13D0FB79C9
S11303C0032B0DD0FB79042B07D0FB79052B02D12D
S11303D041F6FF730FE000230DE04FF6FF730AE0D0
S11303E04FF6FF7307E04FF6FF7304E04FF6FF7319
S11303F001E04FF6FF733A68134103F00103002B49
S113040004D140F20B410A4802F0FAFA01223B6897
S113041002FA03F30749FA7918461346DB0013443A
S11304209B000B441033186000BF0837BD4680BDE5
S1130430386C00000060004080B582B000AF01213C
S1130440104802F01FFF01210F4802F01BFF002398
S11304507B600FE00D4A7B6812F833000B4A7B681F
S1130460DB00134459680023042203F065FD7B6814
S113047001337B607B68012BECDD002318460837D1
S1130480BD4680BD4081040000D204009C6C000085
S113049080B582B000AF78607B68002B10DB7B688E
S11304A0012B0DDC094A7B6812F83300074A7B688C
S11304B0DB0013445B681946FFF726FF002301E0C5
S11304C04FF0FF3318460837BD4680BD9C6C0000D2
S11304D080B582B000AF78607B68002B10DB7B684E
S11304E0012B0DDC094A7B6812F83300074A7B684C
S11304F0DB0013445B681946FFF752FF002301E059
S11305004FF0FF3318460837BD4680BD9C6C000091
S1130510064880470649074A074B9A42BEBF51F82E
S1130520040B42F8040BF8E7FFF7F8FDB5060000EA
S11305309C700000000000207C000020FEE700BF4B
S113054080B400AF034BDB6C1B0EDBB21846BD4618
S113055080BC7047B081E00F80B582B000AF00F07E
S11305601FF87860074B5B6803F00F037A6822FA80
S113057003F37B60044A7B6813607B681846083782
S1130580BD4680BD00800C400800002080B400AF50
S1130590024B1846BD4680BC704700BF006CDC02AD
S11305A080B582B000AF334BDB6A03F47053B3F50C
S11305B0805F0AD0B3F5005F03D0B3F5006F08D0B5
S11305C00BE02D4B1B687B6047E04FF400437B60DE
S11305D043E02A4B1B687B603FE0264BDB6803F457
S11305E0E063B3F5007F1BD0B3F5007F05D8002B83
S11305F024D0B3F5807F16D02BE0B3F5806F09D0FB
S1130600B3F5A06F03D0B3F5407F06D021E01C4BB7
S11306107B6021E01B4B7B601EE01B4B7B601BE07F
S11306201A4B7B6018E0FFF78BFF0346122B02D9AD
S1130630174B7B6010E0174B7B600DE0FFF780FFEA
S11306400346122B02D9144B7B6005E0134B7B60ED
S113065002E000237B6000BF00BF064B1B689B0BBE
S113066003F0070301337A68B2FBF3F31846083743
S1130670BD4680BD00800C40040000200000002026
S1130680003FAB01406F4001809FD500C0D8A70058
S113069040B56400C0CF6A00804F120040420F0092
S11306A080B400AF024B1B681846BD4680BC70473F
S11306B00000002080B400AF034B044A9A6000BFDE
S11306C0BD4680BC704700BF00ED00E000000000A4
S11306D080B400AF4FF400431846BD4680BC704759
S11306E080B400AF4FF47A731846BD4680BC70479F
S11306F080B400AF024B1B681846BD4680BC7047EF
S11307000400002080B400AF054B1B69044A23F0A9
S11307100403136130BF00BFBD4680BC704700BFF7
S113072000ED00E080B582B000AF0346FB71074BDB
S11307301B68002B04D0054B1B68FA7910469847B8
S1130740012318460837BD4680BD00BFA400002021
S113075080B582B000AF78603960124A7B6813605C
S1130760114B124A1A60104A3B685360104B002226
S11307701A700F4B00225A7004F04AF9034603F42E
S11307808073002B09D004F019F9074B5B68002B28
S113079003D0054B5B680420984700BF0837BD466B
S11307A080BD00BFA40000209800002025070000A1
S11307B0A800002080B584B000AF0023FB730023A1
S11307C0BB6003F047F9786000F03CF80346FB7027
S11307D0FB78022B02D0FB78032B01D103F0DCFA67
S11307E000F030F80346FB70FB78002B08D0FB7850
S11307F0032B05D8FB78184600F042F80346FB7338
S11308000F4B9B68002B05D00D4B9B68FA7B104661
S11308109847B860BB6803F00103002BE0D1FB7B71
S1130820022B02D0FB7B032B01D103F0BCFA7868C6
S113083003F01FF9FB7B18461037BD4680BD00BF8F
S11308409800002080B483B000AF0123FB710B4BF0
S11308501B78002B07D10223FB71084B5B78002B1C
S113086001D10323FB71FB79032B01D90323FB7112
S1130870FB7918460C37BD4680BC7047A8000020A1
S113088080B584B000AF0346FB710123FB73FB7991
S1130890002B02D0FB79042B04D94FF4CB712148EF
S11308A002F0AEF8204B1B68002B06D01E4B1B68D1
S11308B0FA79104698470346FB73FB7B83F00103E8
S11308C0DBB2002B01D0002327E0FB79013B032B93
S11308D018D801A252F823F0E9080000EF0800003C
S11308E0F7080000FF080000FFF70CFF0BE00020F2
S11308F003F09EF907E0002003F0EAF903E003F0B7
S113090059FA00E000BF084B5B68002B04D0064B8B
S11309105B68FA7910469847FB7918461037BD464C
S113092080BD00BFAC6C00009800002080B584B08E
S113093000AF78600023FB607B6803F00703002BA3
S113094004D07B6823F0070308337B6001F072F85E
S1130950164B1B68002B05D1154B23F007031A46D1
S1130960124B1A60134B1A687B68134442F21F320D
S1130970934213D80F4B1A687B681A440D4B1B68BB
S11309809A420BD9094B1A680A4B1B681344FB6043
S1130990084B1A687B681344064A136001F058F840
S11309A0FB6818461037BD4680BD00BFD823002021
S11309B0B4000020D423002080B582B000AF78605A
S11309C07B68002B03D0B821034802F019F800BF5C
S11309D00837BD4680BD00BFC06C000080B483B042
S11309E000AF78607B6803F108027B685A607B681B
S11309F04FF0FF329A607B6803F108027B68DA608B
S1130A007B6803F108027B681A617B6800221A6024
S1130A1000BF0C37BD4680BC704780B483B000AFC4
S1130A2078607B6800221A6100BF0C37BD4680BC29
S1130A30704780B485B000AF786039607B685B68CC
S1130A40FB603B68FA685A60FB689A683B689A6086
S1130A50FB689B683A685A60FB683A689A603B682E
S1130A607A681A617B681B685A1C7B681A6000BF2D
S1130A701437BD4680BC704780B485B000AF786041
S1130A8039603B681B68BB60BB68B3F1FF3F03D1AF
S1130A907B681B69FB600CE07B680833FB6002E049
S1130AA0FB685B68FB60FB685B681B68BA689A421A
S1130AB0F6D2FB685A683B685A603B685B683A68E0
S1130AC09A603B68FA689A60FB683A685A603B68C7
S1130AD07A681A617B681B685A1C7B681A6000BFBD
S1130AE01437BD4680BC704780B485B000AF7860D1
S1130AF07B681B69FB607B685B687A6892689A60B4
S1130B007B689B687A6852685A60FB685B687A689D
S1130B109A4203D17B689A68FB685A607B6800221A
S1130B201A61FB681B685A1EFB681A60FB681B6825
S1130B3018461437BD4680BC7047000080B485B0A9
S1130B4000AFF860B9607A60FB68043BFB60FB6847
S1130B504FF080721A60FB68043BFB60BB6823F0B3
S1130B600102FB681A60FB68043BFB60084AFB68EF
S1130B701A60FB68143BFB607A68FB681A60FB68C8
S1130B80203BFB60FB6818461437BD4680BC7047A9
S1130B90950B000080B582B000AF094B1B68B3F120
S1130BA0FF3F03D0FF21074801F02AFF4FF0BF03A6
S1130BB083F31188BFF36F8FBFF34F8F7B60FEE722
S1130BC00C000020E06C00000000000000000000A9
S1130BD0074B19680868B0E8F00F80F30988BFF381
S1130BE06F8F4FF0000080F311884EF00D0E7047A8
S1130BF0E423002000BF00BF06480068006880F3BB
S1130C00088862B661B6BFF34F8FBFF36F8F00DF02
S1130C1000BF00BF08ED00E080B584B000AF284BF2
S1130C20FB60FB681B78DBB2BB60FB68FF221A70B9
S1130C30FB681B78DBB2FB71FB79DBB223F040036A
S1130C40DAB2204B1A70204B07221A6009E01E4BBF
S1130C501B68013B1C4A1360FB79DBB25B00DBB20F
S1130C60FB71FB79DBB203F08003802BEFD0164BD2
S1130C701B681B02144A1360134B1B6803F4E063E4
S1130C80114A1360BB68DAB2FB681A700F4B1B6819
S1130C900E4A43F47F0313600C4B1B680B4A43F06A
S1130CA07F43136004F008F8094B00221A60FFF731
S1130CB0A3FFFFF76FFF002318461037BD4680BD22
S1130CC000E400E0DC230020E023002020ED00E02D
S1130CD00C00002080B582B000AF4FF0BF0383F357
S1130CE01188BFF36F8FBFF34F8F7B600B4B1B6873
S1130CF001330A4A1360094B1B68012B09D1084BC5
S1130D001B68DBB2002B04D04FF4C671054801F018
S1130D1077FE00BF0837BD4680BD00BF0C00002031
S1130D2004ED00E0E06C000080B582B000AF0D4B34
S1130D301B68002B04D140F293110B4801F060FEB4
S1130D40084B1B68013B074A1360064B1B68002BCA
S1130D5004D100237B607B6883F3118800BF0837CC
S1130D60BD4680BD0C000020E06C000000000000C7
S1130D70EFF30980BFF36F8F0D4B1A6820E9F00F72
S1130D8010602DE908404FF0BF0080F3118800F097
S1130D90BFFF4FF0000080F31188BDE808401968D8
S1130DA00868B0E8F00F80F30988BFF36F8F7047CD
S1130DB0E423002000BF00BF80B582B000AF4FF035
S1130DC0BF0383F31188BFF36F8FBFF34F8F7B6033
S1130DD000F0E4FE0346002B03D0064B4FF0805294
S1130DE01A6000233B603B6883F3118800BF083717
S1130DF0BD4680BD04ED00E080B582B000AFEFF3E6
S1130E0005837B607B680F2B0ED9104A7B681344E3
S1130E101B78FB700E4B1B78FA789A4204D240F28E
S1130E20AB210C4801F0ECFD0B4B1B6803F4E062B2
S1130E300A4B1B689A4204D940F2BB21054801F0D1
S1130E40DFFD00BF0837BD4680BD00BFF0E300E012
S1130E50DC230020E06C00000CED00E0E023002027
S1130E6080B584B000AF786039607B68FB60FB6854
S1130E70002B04D14FF49471294801F0C1FDFFF710
S1130E8029FFFB681A68FB68DB6BF968096C01FBD6
S1130E9003F31A44FB685A60FB6800229A63FB68F8
S1130EA01A68FB689A60FB681A68FB68DB6B013B95
S1130EB0F968096C01FB03F31A44FB68DA60FB6808
S1130EC0FF2283F84420FB68FF2283F845203B6817
S1130ED0002B14D1FB681B69002B1AD0FB6810335C
S1130EE0184600F0B3FF0346002B12D00D4B4FF011
S1130EF080521A60BFF34F8FBFF36F8F09E0FB6816
S1130F0010331846FFF76AFDFB6824331846FFF7D1
S1130F1065FDFFF709FF012318461037BD4680BD64
S1130F20006D000004ED00E080B58AB002AFF86007
S1130F30B9601346FB71FB68002B04D140F2951194
S1130F40134801F05DFDBB68002B02D10023FB6157
S1130F5004E0FB68BA6802FB03F3FB61FB694833F6
S1130F601846FFF7E3FCB861BB69002B0BD0BB69E3
S1130F7048337B61FA79BB69009313467A69B9688F
S1130F80F86800F007F8BB6918462037BD4680BDF5
S1130F90006D000080B584B000AFF860B9607A607D
S1130FA0FB70BB68002B03D1BB69BA691A6002E00D
S1130FB0BB697A681A60BB69FA68DA63BB69BA68A4
S1130FC01A640121B869FFF74BFF00BF1037BD4613
S1130FD080BD000080B58AB000AFF860B9607A6067
S1130FE03B6000237B62FB683B623B6A002B04D1BD
S1130FF040F2E621624801F003FDBB68002B08D1F2
S11310003B6A1B6C002B04D040F2E7215C4801F0E2
S1131010F7FC3B68022B08D13B6ADB6B012B04D045
S11310204FF43A71564801F0EBFC01F0A7F803467F
S1131030002B07D17B68002B04D040F2EB215048F1
S113104001F0DEFCFFF746FE3B6A9A6B3B6ADB6B02
S11310509A4202D33B68022B29D13A68B968386AAC
S113106000F00CFAF8613B6A5B6A002B10D03B6A13
S11310702433184600F0EAFE0346002B13D0414BFC
S11310804FF080521A60BFF34F8FBFF36F8F0AE0A7
S1131090FB69002B07D03B4B4FF080521A60BFF323
S11310A04F8FBFF36F8FFFF73FFE012363E07B6831
S11310B0002B03D1FFF738FE00235CE07B6A002B92
S11310C006D107F11403184600F01EFF01237B62CA
S11310D0FFF72AFE00F0AEFCFFF7FCFD3B6A93F835
S11310E044305BB2B3F1FF3F03D13B6A002283F883
S11310F044203B6A93F845305BB2B3F1FF3F03D120
S11311003B6A002283F84520FFF70EFE3A1D07F1E3
S113111014031146184600F015FF0346002B24D192
S1131120386A00F0A3FA0346002B18D03B6A103348
S11311307A681146184600F041FE386A00F02EFA2B
S113114000F086FC0346002B7FF47CAF0D4B4FF080
S113115080521A60BFF34F8FBFF36F8F72E7386A04
S113116000F01CFA00F074FC6CE7386A00F016FA20
S113117000F06EFC002318462837BD4680BD00BF32
S1131180006D000004ED00E080B58CB000AFF860A5
S1131190B9607A603B60FB68BB62BB6A002B04D118
S11311A04FF46B71364801F02BFCBB68002B08D15F
S11311B0BB6A1B6C002B04D040F2AD31304801F007
S11311C01FFC3B68022B08D1BB6ADB6B012B04D0EC
S11311D040F2AE312A4801F013FCFFF70DFEEFF3A5
S11311E011824FF0BF0383F31188BFF36F8FBFF3F6
S11311F04F8FFA61BB61FB697B62BB6A9A6BBB6A06
S1131200DB6B9A4202D33B68022B2CD1BB6A93F866
S1131210453087F823303A68B968B86A00F02EF987
S113122097F92330B3F1FF3F12D1BB6A5B6A002BFD
S113123016D0BB6A2433184600F008FE0346002B80
S11312400ED07B68002B0BD07B6801221A6007E06C
S113125097F823300133DBB25AB2BB6A83F84520D6
S11312600123FB6201E00023FB627B6A7B617B69F3
S113127083F31188FB6A18463037BD4680BD00BF32
S1131280006D000080B58AB000AFF860B9607A6084
S11312903B6000237B62FB683B623B6A002B04D10A
S11312A040F2E941734801F0ABFBBB68002B08D165
S11312B03B6A1B6C002B04D040F2EA416D4801F0FC
S11312C09FFB00F05BFF0346002B07D17B68002BDC
S11312D004D040F2ED41674801F092FBFFF7FAFCBD
S11312E03B6A9B6BFB61FB69002B46D03B6ADB6866
S11312F0BB61B968386A00F02BF93B68002B21D137
S1131300FB695A1E3B6A9A633B6A1B68002B04D133
S113131001F044F802463B6A5A603B6A1B69002BA1
S113132027D03B6A1033184600F090FD0346002B8B
S11313301FD0514B4FF080521A60BFF34F8FBFF351
S11313406F8F16E03B6ABA69DA603B6A5B6A002B0E
S11313500FD03B6A2433184600F078FD0346002B77
S113136007D0454B4FF080521A60BFF34F8FBFF345
S11313706F8FFFF7D9FC012377E07B68002B03D143
S1131380FFF7D2FC002370E07B6A002B06D107F143
S11313901003184600F0B8FD01237B62FFF7C4FC7C
S11313A000F048FBFFF796FC3B6A93F844305BB2CD
S11313B0B3F1FF3F03D13B6A002283F844203B6A28
S11313C093F845305BB2B3F1FF3F03D13B6A00228F
S11313D083F84520FFF7A8FC3A1D07F110031146D6
S11313E0184600F0AFFD0346002B31D1386A00F0F7
S11313F027F90346002B25D03B6A1B68002B08D134
S1131400FFF768FC3B6A5B68184600F0D5FEFFF7FF
S11314108BFC3B6A24337A681146184600F0CEFCF4
S1131420386A00F0BBF800F013FB0346002B7FF48E
S113143055AF114B4FF080521A60BFF34F8FBFF37B
S11314406F8F4BE7386A00F0A9F800F001FB45E71D
S1131450386A00F0A3F800F0FBFA386A00F0F0F8FC
S11314600346002B3FF43AAF002318462837BD4605
S113147080BD00BF006D000004ED00E080B586B0C3
S113148000AFF860B9607A6000237B61FB689B6BF6
S11314903B61FB681B6C002B0DD1FB681B68002BA8
S11314A04DD1FB685B68184600F0FCFE7861FB6870
S11314B000225A6043E07B68002B19D1FB689868CE
S11314C0FB681B6C1A46B96804F036FCFB689A6822
S11314D0FB681B6C1A44FB689A60FB689A68FB689B
S11314E05B689A422BD3FB681A68FB689A6026E013
S11314F0FB68D868FB681B6C1A46B96804F01CFCCE
S1131500FB68DA68FB681B6C5B421A44FB68DA60B0
S1131510FB68DA68FB681B689A4207D2FB685A6862
S1131520FB681B6C5B421A44FB68DA607B68022B25
S113153005D13B69002B02D03B69013B3B613B6910
S11315405A1CFB689A637B6918461837BD4680BDF0
S113155080B582B000AF786039607B681B6C002B6B
S113156018D07B68DA687B681B6C1A447B68DA6085
S11315707B68DA687B685B689A4203D37B681A6885
S11315807B68DA607B68D9687B681B6C1A463868AC
S113159004F0D2FB00BF0837BD4680BD80B584B0DF
S11315A000AF7860FFF796FB7B6893F84530FB73D8
S11315B011E07B685B6A002B12D07B6824331846E9
S11315C000F044FC0346002B01D000F011FDFB7B2E
S11315D0013BDBB2FB7397F90F30002BE9DC00E031
S11315E000BF7B68FF2283F84520FFF79DFBFFF7D0
S11315F071FB7B6893F84430BB7311E07B681B6913
S1131600002B12D07B681033184600F01FFC0346F1
S1131610002B01D000F0ECFCBB7B013BDBB2BB73C5
S113162097F90E30002BE9DC00E000BF7B68FF2255
S113163083F84420FFF778FB00BF1037BD4680BD18
S113164080B584B000AF7860FFF744FB7B689B6B88
S1131650002B02D10123FB6001E00023FB60FFF7B4
S113166063FBFB6818461037BD4680BD80B584B067
S113167000AF7860FFF72EFB7B689A6B7B68DB6BAF
S11316809A4202D10123FB6001E00023FB60FFF7D3
S11316904BFBFB6818461037BD4680BD80B485B04F
S11316A000AF786039600023FB6014E00E4AFB68E9
S11316B052F83330002B0BD10B49FB683A6841F8E0
S11316C03320094AFB68DB0013447A685A6005E05A
S11316D0FB680133FB60FB68092BE7D900BF1437B3
S11316E0BD4680BC704700BF2C25002080B586B065
S11316F000AFF860B9607A60FB687B61FFF7EAFAD3
S11317007B6993F844305BB2B3F1FF3F03D17B694B
S1131710002283F844207B6993F845305BB2B3F12F
S1131720FF3F03D17B69002283F84520FFF7FCFAD1
S11317307B699B6B002B06D17B6924337A68B9687B
S1131740184600F05BFB7869FFF728FF00BF1837E5
S1131750BD4680BD80B58CB004AFF860B9603B6015
S11317601346FB80FB889B001846FFF7DFF878617F
S11317707B69002B0ED05020FFF7D8F8F861FB6985
S1131780002B03D0FB697A691A6305E07869FFF7D7
S113179013F901E00023FB61FB69002B13D0FA88E5
S11317A000230393FB690293FB6A0193BB6A0093D2
S11317B03B68B968F86800F00FF8F86900F088F839
S11317C00123BB6102E04FF0FF33BB61BB691846E4
S11317D02037BD4680BD000080B586B000AFF860FC
S11317E0B9607A603B60BB6A1A6B7B6803F1804323
S11317F0013B9B0013443B613B6923F007033B61BE
S11318003B6903F00703002B04D04FF44E712F48BB
S113181001F0F6F800237B6112E0BA687B69134497
S11318201978BA6A7B69134434330A461A70BA6861
S11318307B6913441B78002B06D07B6901337B61E1
S11318407B69092BE9D900E000BFBB6A002283F859
S11318503D203B6A022B01D902233B62BB6A3A6AF0
S1131860DA62BB6A3A6A1A64BB6A00225A64BB6AC7
S113187004331846FFF7D1F8BB6A18331846FFF74C
S1131880CCF8BB6ABA6A1A613B6AC3F10302BB6A49
S11318909A61BB6ABA6A5A62BB6A00229A64BB6ADA
S11318A0002283F84C203A68F9683869FFF746F952
S11318B00246BB6A1A607B6A002B02D07B6ABA6A52
S11318C01A6000BF1837BD4680BD00BF1C6D000004
S11318D080B582B000AF7860FFF7FCF92A4B1B6833
S11318E00133294A1360294B1B68002B09D1274A6D
S11318F07B681360244B1B68012B10D100F08EFB16
S11319000DE0234B1B68002B09D1204B1B68DA6ABE
S11319107B68DB6A9A4202D81C4A7B6813601D4BC1
S11319201B6801331B4A13607B68DB6A01229A40FF
S1131930194B1B681343184A13607B68DA6A134611
S11319409B0013449B00154A1A447B6804331946D0
S11319501046FFF76EF8FFF7E7F90D4B1B68002BF5
S11319600ED00A4B1B68DA6A7B68DB6A9A4207D29C
S11319700B4B4FF080521A60BFF34F8FBFF36F8F42
S113198000BF0837BD4680BD94240020E423002016
S1131990A0240020B02400209C240020E823002060
S11319A004ED00E080B584B002AF1B4B019300232B
S11319B0009300238C2219491948FFF7CBFE786065
S11319C07B68012B02D100F063FD78607B68012BFA
S11319D015D14FF0BF0383F31188BFF36F8FBFF3AB
S11319E04F8F3B600F4B4FF0FF321A600E4B0122BA
S11319F01A600E4B00221A60FFF70EF908E07B68AC
S1131A00B3F1FF3F04D140F29171094800F0F8FFAF
S1131A1000BF0837BD4680BDB8240020386D0000E3
S1131A2009200000B4240020A024002098240020D1
S1131A301C6D000080B400AF044B1B680133034AE3
S1131A40136000BFBD4680BC704700BFBC240020AB
S1131A5080B584B000AF0023FB600023BB603E4B25
S1131A601B68002B04D140F2F5713C4800F0C8FF1C
S1131A70FFF730F9384B1B68013B374A1360364B8C
S1131A801B68002B61D1364B1B68002B5DD02EE008
S1131A90344BDB68DB68FB60FB6818331846FFF7E0
S1131AA023F8FB6804331846FFF71EF8FB68DB6A6B
S1131AB001229A402C4B1B6813432B4A1360FB688A
S1131AC0DA6A13469B0013449B00284A1A44FB68B5
S1131AD0043319461046FEF7ACFFFB68DA6A244B60
S1131AE01B68DB6A9A4202D3224B01221A601D4B07
S1131AF01B68002BCCD1FB68002B01D000F01AFB33
S1131B001D4B1B687B607B68002B10D000F046F8EF
S1131B100346002B02D0174B01221A607B68013B5D
S1131B207B607B68002BF1D1134B00221A60114BB0
S1131B301B68002B09D00123BB60104B4FF080526F
S1131B401A60BFF34F8FBFF36F8FFFF7EDF8BB68D9
S1131B5018461037BD4680BDBC2400201C6D000013
S1131B6094240020542400209C240020E8230020F6
S1131B70E4230020A8240020A424002004ED00E095
S1131B8080B483B000AF044B1B687B607B6818464D
S1131B900C37BD4680BC70479824002080B586B0C1
S1131BA000AF00237B614E4B1B68002B40F0878005
S1131BB04C4B1B6801333B614A4A3B6913603B69E8
S1131BC0002B1AD1484B1B681B68002B04D040F62D
S1131BD0E611464800F014FF434B1B68FB60444B7E
S1131BE01B68414A1360424AFB681360414B1B68FF
S1131BF00133404A136000F09DFA3F4B1B683A6979
S1131C009A424DD3384B1B681B68002B01D101232A
S1131C1000E00023002B04D0374B4FF0FF321A6052
S1131C203EE0314B1B68DB68DB68BB60BB685B680C
S1131C307B603A697B689A4203D22F4A7B681360BF
S1131C402EE0BB6804331846FEF74EFFBB689B6A60
S1131C50002B04D0BB6818331846FEF745FFBB6859
S1131C60DB6A01229A40254B1B681343234A136005
S1131C70BB68DA6A13469B0013449B00204A1A444B
S1131C80BB68043319461046FEF7D3FEBB68DA6A14
S1131C901C4B1B68DB6A9A42B4D301237B61B1E716
S1131CA0184B1B68DA6A164913469B0013449B00C1
S1131CB00B441B68012B07D901237B6104E0124B01
S1131CC01B680133104A1360104B1B68002B01D0B2
S1131CD001237B617B6918461837BD4680BD00BF70
S1131CE0BC240020982400204C2400201C6D0000FB
S1131CF050240020AC240020B42400209C24002084
S1131D00E8230020E4230020A4240020A8240020A9
S1131D1080B584B000AF234B1B68002B03D0224B4B
S1131D2001221A6039E0204B00221A601F4B1B6805
S1131D307B607B68B3FA83F3FB70FB78C3F11F030A
S1131D40FB601B49FA6813469B0013449B000B4439
S1131D501B68002B04D140F60331164800F050FEF6
S1131D60FA6813469B0013449B00114A1344BB605A
S1131D70BB685B685A68BB685A60BB685A68BB68D2
S1131D8008339A4204D1BB685B685A68BB685A60DE
S1131D90BB685B68DB68084A136000BF1037BD4648
S1131DA080BD00BFBC240020A82400209C24002067
S1131DB0E82300201C6D0000E423002080B582B0DD
S1131DC000AF786039607B68002B04D140F6133192
S1131DD0084800F015FE084B1B681833194678684C
S1131DE0FEF74AFE0121386800F0ECFA00BF08371C
S1131DF0BD4680BD1C6D0000E423002080B584B086
S1131E0000AFF860B9607A60FB68002B04D140F63B
S1131E103E310C4800F0F4FD0B4B1B681833194697
S1131E20F868FEF706FE7B68002B02D04FF0FF3304
S1131E30BB607968B86800F0C5FA00BF1037BD46CA
S1131E4080BD00BF1C6D0000E423002080B584B079
S1131E5000AF78607B68DB68DB68BB60BB68002B25
S1131E6004D140F66E31214800F0CAFDBB68183336
S1131E701846FEF739FE1E4B1B68002B1CD1BB68AD
S1131E8004331846FEF730FEBB68DB6A01229A4031
S1131E90184B1B681343174A1360BB68DA6A13466E
S1131EA09B0013449B00144A1A44BB68043319462C
S1131EB01046FEF7BEFD05E0BB68183319460F480F
S1131EC0FEF7B7FDBB68DA6A0D4B1B68DB6A9A4202
S1131ED005D90123FB600B4B01221A6001E00023AA
S1131EE0FB60FB6818461037BD4680BD1C6D0000C2
S1131EF0BC2400209C240020E8230020542400203B
S1131F00E4230020A824002080B582B000AF7860CC
S1131F107B68002B04D140F6CE31074800F070FDF9
S1131F20064B1A687B681A60054B1A687B685A600E
S1131F3000BF0837BD4680BD1C6D0000AC240020E6
S1131F409824002080B584B000AF786039607B6845
S1131F50002B04D140F6D831224800F051FD3B68F3
S1131F60002B04D140F6D9311E4800F049FDFEF79C
S1131F70B1FE1D4B1B68BB603B681B68B3F1FF3FA0
S1131F8002D10023FB6026E07B681A68174B1B68AC
S1131F909A4207D07B685B68BA689A4202D30123ED
S1131FA0FB6018E07B685B68BA68D21A3B681B6800
S1131FB09A420ED23B681A687B685968BB68CB1A90
S1131FC01A443B681A607868FFF79EFF0023FB60A1
S1131FD001E00123FB60FEF7A7FEFB6818461037FB
S1131FE0BD4680BD1C6D000098240020AC24002058
S1131FF080B400AF034B01221A6000BFBD4680BC11
S1132000704700BFA824002080B582B000AF78607C
S113201000F044F802F00CFEFAE7000080B582B04C
S113202000AF00237B600CE07A6813469B001344E6
S11320309B00124A13441846FEF7D0FC7B68013318
S11320407B607B68022BEFD90D48FEF7C7FC0D4877
S1132050FEF7C4FC0C48FEF7C1FC0C48FEF7BEFCBE
S11320600B48FEF7BBFC0B4B054A1A600A4B054AAA
S11320701A6000BF0837BD4680BD00BFE8230020BA
S11320802424002038240020542400206824002024
S1132090802400204C2400205024002080B582B0ED
S11320A000AF28E0FFF7C6FC174B1B68002B0CBFE2
S11320B001230023DBB27B60FFF7CAFC7B68002BA3
S11320C019D1FEF707FE104BDB68DB683B603B6809
S11320D004331846FEF708FD0C4B1B68013B0B4A02
S11320E013600B4B1B68013B094A1360FEF71CFE8F
S11320F0386800F00FF8064B1B68002BD2D100BFE4
S11321000837BD4680BD00BF682400209424002009
S11321107C24002080B582B000AF78607B681B6BA4
S11321201846FEF749FC7868FEF746FC00BF0837FE
S1132130BD4680BD80B483B000AF0E4B1B681B68E6
S1132140002B01D1012300E00023002B04D00A4B13
S11321504FF0FF321A6008E0064B1B68DB68DB684F
S11321607B607B685B68044A136000BF0C37BD4624
S113217080BC70474C240020B424002080B483B079
S113218000AF0B4B1B68002B02D101237B6008E0DE
S1132190084B1B68002B02D102237B6001E0002363
S11321A07B607B6818460C37BD4680BC704700BF17
S11321B0A0240020BC24002080B584B000AF786047
S11321C07B68FB607B68002B62D0FB68DA6A324B69
S11321D01B68DB6A9A425BD2FB689B69002B06DBB7
S11321E02D4B1B68DB6AC3F10302FB689A61FB6831
S11321F05969FB68DA6A13469B0013449B00274A1B
S11322001344994201D1012300E00023002B3AD06A
S1132210FB6804331846FEF767FC0346002B15D110
S1132220FB68DA6A1D4913469B0013449B000B4468
S11322301B68002B0AD1FB68DB6A012202FA03F354
S1132240DA43174B1B681340154A1360124B1B6883
S1132250DA6AFB68DA62FB68DB6A01229A40104B97
S11322601B6813430E4A1360FB68DA6A13469B002B
S113227013449B00094A1A44FB6804331946104668
S1132280FEF7D7FB04E0044B1B68DA6AFB68DA62EA
S113229000BF1037BD4680BDE4230020E8230020A2
S11322A09C24002080B584B000AF78607B68BB605C
S11322B00023FB607B68002B62D0344B1B68BA6838
S11322C09A4204D040F6D461314800F099FBBB68CF
S11322D05B6C002B04D140F6D6612D4800F090FBD6
S11322E0BB685B6C5A1EBB685A64BB68DA6ABB681D
S11322F01B6C9A4244D0BB685B6C002B40D1BB681A
S113230004331846FEF7F0FB0346002B15D1BB68D7
S1132310DA6A204913469B0013449B000B441B6854
S1132320002B0AD1BB68DB6A012202FA03F3DA4309
S1132330194B1B681340184A1360BB681A6CBB68BE
S1132340DA62BB68DB6AC3F10302BB689A61BB68EB
S1132350DB6A01229A40104B1B6813430E4A136038
S1132360BB68DA6A13469B0013449B00094A1A446B
S1132370BB68043319461046FEF75BFB0123FB6080
S1132380FB6818461037BD4680BD00BFE42300201B
S11323901C6D0000E82300209C24002080B400AFC2
S11323A0074B1B68002B04D0054B1B685A6C013289
S11323B05A64034B1B681846BD4680BC704700BF77
S11323C0E423002080B584B000AF78603960294BE5
S11323D01B68FB60284B1B6804331846FEF784FB1C
S11323E00346002B0BD1244B1B68DB6A012202FA43
S11323F003F3DA43214B1B681340204A13607B68C4
S1132400B3F1FF3F0AD13B68002B07D01A4B1B687E
S1132410043319461A48FEF70CFB26E0FA687B6879
S11324201344BB60144B1B68BA685A60BA68FB68F3
S11324309A4209D2134B1A680F4B1B68043319468E
S11324401046FEF719FB10E00F4B1A680A4B1B6885
S1132450043319461046FEF70FFB0C4B1B68BA6891
S11324609A4202D2094ABB68136000BF1037BD46C6
S113247080BD00BF98240020E42300209C24002079
S113248080240020502400204C240020B424002068
S113249080B584B002AF00237B6000F07BFA0E4B62
S11324A01B68002B0AD00D4B0193022300930023D9
S11324B08C220B490B48FFF74DF978607B68002BA1
S11324C004D14FF4A071084800F09AFA7B681846CA
S11324D00837BD4680BD00BFF0240020F42400204E
S11324E0406D0000F9250000486D000080B588B0FB
S11324F000AFF860B9607A603B600023FB61FB6861
S1132500002B04D140F2B3111B4800F079FA1B4BA5
S11325101B68002B2AD0BB683B617B687B61FB682E
S1132520BB61BB68052B18DCFFF728FE0346022BB2
S113253009D1124B186807F110010023BA6AFEF79B
S113254049FDF86112E00D4B186807F110010023F2
S11325500022FEF73FFDF86108E0084B186807F118
S1132560100100233A68FEF70FFEF861FB69184674
S11325702037BD4680BD00BF486D0000F024002018
S113258080B586B002AF78603960194B1B68DB6890
S1132590DB68FB60FB6804331846FEF7A5FAFB68AA
S11325A0DB69012B1CD1FB689A697B68D1187B68B5
S11325B03A68F86800F0C4F80346002B10D00023F2
S11325C0009300237A680021F868FFF78FFFB86052
S11325D0BB68002B04D140F21521064800F010FA24
S11325E0FB685B6AF868984700BF1037BD4680BD3A
S11325F0E8240020486D000080B584B000AF786006
S113260007F10803184600F057F8F860BB6819464C
S1132610F86800F003F800F0D5F8F1E780B584B06D
S113262000AF78603960FFF705FA07F10803184630
S113263000F066F8F860BB68002B30D13B68002BD3
S11326400AD17A68FB689A4206D8FFF701FAF9685A
S11326507868FFF795FF24E03B68002B08D0134B04
S11326601B681B68002B0CBF01230023DBB23B60FB
S11326700F4B18687A68FB68D31A3A681946FFF753
S113268035F8FFF7E5F90346002B0AD1094B4FF063
S113269080521A60BFF34F8FBFF36F8F01E0FFF7D3
S11326A0D7F900BF1037BD4680BD00BFEC24002021
S11326B0F024002004ED00E080B485B000AF786021
S11326C00E4B1B681B68002B0CBF01230023DBB2DD
S11326D01A467B681A607B681B68002B05D1074B80
S11326E01B68DB681B68FB6001E00023FB60FB6880
S11326F018461437BD4680BC704700BFE82400204C
S113270080B584B000AF7860FFF73AFAF8600B4BFD
S11327101B68FA689A4205D200F0DEF87B68012251
S11327201A6002E07B6800221A60044AFB681360A6
S1132730FB6818461037BD4680BD00BFF824002052
S113274080B586B000AFF860B9607A603B60002362
S11327507B61FB68BA685A60FB68FA681A61BA68F8
S11327607B689A4212D87A683B68D21AFB689B69E4
S11327709A4202D301237B611BE0104B1A68FB6869
S1132780043319461046FEF777F912E07A683B687D
S11327909A4206D2BA683B689A4202D301237B610B
S11327A007E0074B1A68FB68043319461046FEF726
S11327B063F97B6918461837BD4680BDEC240020B8
S11327C0E824002080B58AB002AF71E0BB68002B1A
S11327D06DDB3B69FB61FB695B69002B04D0FB6922
S11327E004331846FEF780F93B1D1846FFF788FFAF
S11327F0B861BB68092B5BD801A252F823F000BF73
S1132800292800002928000029280000B1280000F8
S11328107B280000A72800002928000029280000A0
S1132820B12800007B280000FA68FB699B69D11875
S1132830FB68BA69F869FFF783FF0346002B37D0BA
S1132840FB695B6AF8699847FB69DB69012B2FD147
S1132850FA68FB699B691A44002300930023002152
S1132860F869FFF743FE78617B69002B20D140F2C1
S11328702E31174800F0C4F81AE0FA68FB699A612F
S1132880FB699B69002B04D140F24531104800F0EC
S1132890B7F8FB699A69BB69D118BB69BA69F86969
S11328A0FFF74EFF04E0F869FEF786F800E000BF8A
S11328B0084B186807F1080100230022FEF7E2FC28
S11328C00346002B82D100BF2037BD4680BD00BF28
S11328D0486D0000F024002080B588B002AF3FE0CE
S11328E0294B1B68DB681B683B61274B1B68DB6853
S11328F0DB68FB60FB6804331846FEF7F5F8FB68F9
S11329005B6AF8689847FB68DB69012B28D1FB6890
S11329109B693A691344BB60BA683B699A420ED911
S1132920FB68BA685A60FB68FA681A61164B1A6841
S1132930FB68043319461046FEF79EF810E00023A6
S1132940009300233A690021F868FFF7CFFD78600F
S11329507B68002B04D140F29F310C4800F050F802
S1132960094B1B681B68002BBAD1074B1B687B61A2
S1132970074B1B68044A1360054A7B69136000BF58
S11329801837BD4680BD00BFE8240020486D000014
S1132990EC24002080B500AFFEF79CF9124B1B68B5
S11329A0002B1DD11148FEF719F81148FEF716F84F
S11329B0104B0E4A1A60104B0D4A1A6000220C216B
S11329C00A20FEF7B1FA0246074B1A60064B1B6851
S11329D0002B05D0044B1B6808491846FEF75EFE21
S11329E0FEF7A2F900BF80BDF0240020C02400201F
S11329F0D4240020E8240020EC240020686D00008A
S1132A0080B483B000AF78603960FEE780B487B0EB
S1132A1000AFF860B9607A60FB6803F10473DA0010
S1132A20BB6813449B007B617B697A681A6000BFB2
S1132A301C37BD4680BC704780B483B000AF78605B
S1132A40034A7B68136300BF0C37BD4680BC7047E4
S1132A500010084080B582B000AF0346FB71FB79DB
S1132A601A4600210348FFF7D1FF00BF0837BD46CF
S1132A7080BD00BF3810084080B584B000AF7860D6
S1132A807B68002B03D07B68B3F5004F03D9462144
S1132A900748FFF7B5FF7B68B3FA83F3DBB2C3F1F2
S1132AA01F03FB60FB6818461037BD4680BD00BF9E
S1132AB0706D000080B483B000AF78600F4B9B6BE7
S1132AC003F00103002B13D10C4B1B6803F4405398
S1132AD0002B0DD0094B1B6803F00803082B07D00B
S1132AE000BF064BDA6B7B681340002BF9D100E082
S1132AF000BF0C37BD4680BC704700BF00100840C3
S1132B0080B584B000AF78607B68002B03D1872147
S1132B103F48FFF775FF7B689B68002B03D07B68F9
S1132B209B68802B03D989213948FFF769FF7B68AB
S1132B30DB68062B03D98D213548FFF761FF7B68DD
S1132B401B78002B0BD07B681B78012B03D17B688F
S1132B505B78002B03D191212D48FFF751FF7B684F
S1132B609B88B3F5405F0CD17B689B88B3F5405FCD
S1132B7003D17B689B7C002B03D095212448FFF76D
S1132B803FFF7B689B681846FFF776FFF8607B6819
S1132B901B78002B02D00120FFF75CFF0120FFF718
S1132BA089FF7B689A7C1B4B5A607B685B7843F097
S1132BB00803DBB21A467B689B789B0013437A6850
S1132BC0527C12011A437B68DB685B011A43FB6881
S1132BD01B0213437A68928813437A68127C920327
S1132BE01343BB604FF0FF30FFF726FF094ABB6871
S1132BF013607B681B78002B05D0012000F00CF8D3
S1132C000020FFF727FF00BF1037BD4680BD00BF7F
S1132C10706D00000010084080B582B000AF03461C
S1132C20FB71FB79012B05D10D4B1B6803F00303EA
S1132C30002B07D1FB79002B04D04FF48171094894
S1132C40FFF7DEFEFB7983F00103DBB21A460321B2
S1132C500348FFF7DBFE00BF0837BD4680BD00BF59
S1132C6000100840706D000080B582B000AF78603D
S1132C7039607B68002B04D04FF489710648FFF754
S1132C80BFFE0220FFF716FF044A3B68D36000BF73
S1132C900837BD4680BD00BF706D000000100840BD
S1132CA080B582B000AF78607B68002B04D04FF40D
S1132CB098710448FFF7A4FE034BDB6818460837F5
S1132CC0BD4680BD706D00000010084080B500AFA7
S1132CD0012203210448FFF799FE00220321024840
S1132CE0FFF794FE00BF80BD0010084080B487B099
S1132CF000AFF860B9607A60FB6803F10473DA002E
S1132D00BB6813449B007B617B697A681A6000BFCF
S1132D101C37BD4680BC704780B485B000AF786076
S1132D2039607B6803F10473DA003B6813449B0049
S1132D30FB60FB681B6818461437BD4680BC7047AF
S1132D4080B584B000AF78607B68002B03D07B68CB
S1132D50B3F5004F04D940F6A9210748FFF750FE08
S1132D607B68B3FA83F3DBB2C3F11F03FB60FB6838
S1132D7018461037BD4680BDEC6D000080B400AF2E
S1132D80034BDB6C1B0EDBB21846BD4680BC7047A0
S1132D90B081E00F80B400AF034BDB6C1B0CDBB2E3
S1132DA01846BD4680BC7047B081E00F80B582B044
S1132DB000AFFFF7EFFF03464A2B04D0792B02D074
S1132DC0482B23D024E0174B1B699BB21B029BB2F8
S1132DD003F47C53FB80134B9B691B091B0103F019
S1132DE0F0039AB2FB881343FB800E4BDB691B098B
S1132DF003F00F039AB2FB881343FB80FB88B3F5FF
S1132E00017F01D3084B09E0084B07E0074B05E0BD
S1132E1040F659410648FFF7F3FD002318460837EA
S1132E20BD4680BDD0FF0FE000366E010048E801CA
S1132E30506E000080B584B000AF78600123FB6061
S1132E40FFF7B4FF02467B68934204D80023FB607B
S1132E500023BB600BE0FFF7A9FF03465B007A6821
S1132E609A4202D80123BB6001E00223BB60FA68E6
S1132E701E210848FFF73AFF064B5B6823F4807273
S1132E80BB681B02034913434B6000BF1037BD46A8
S1132E9080BD00BF00800C4080B582B000AF1E2111
S1132EA00448FFF739FF78607B6818460837BD4649
S1132EB080BD00BF00800C4080B582B000AF244BC1
S1132EC05B6903F4E063B3F5007F1CD0B3F5007FC6
S1132ED005D8002B25D0B3F5807F1FD02AE0B3F5A9
S1132EE0C06F24D0B3F5E06F1ED0B3F5407F21D17D
S1132EF0FFF744FF0346122B02D9164B7B6021E0F7
S1132F00154B7B601EE0FFF739FF0346122B02D9F5
S1132F10124B7B6016E0124B7B6013E0114B7B601D
S1132F2010E0114B7B600DE0104B7B600AE0104B0E
S1132F307B6007E000237B6040F6D8410D48FFF733
S1132F405FFD00BF7B6818460837BD4680BD00BFE3
S1132F5000800C40804F120040420F0040B56400D6
S1132F60C0CF6A00C0D8A700809FD500406F400141
S1132F70003FAB01506E000080B582B000AF0F4837
S1132F8000F0E0FA0346FB70FB78072B05D0092B11
S1132F9007D1FDF705FB78600BE0FFF78DFF786044
S1132FA007E000237B6040F612510548FFF728FD37
S1132FB000BF7B6818460837BD4680BD06000E007A
S1132FC0506E000080B485B000AF78603960204B4B
S1132FD05B6803F00703FB60FB68012B01D9042B3A
S1132FE002D10023FB7202E00123FB7200BF7B6865
S1132FF0184A934207D9FB7A002B01D0052300E03D
S11330000423FB6016E07B68124A93420BD87B686A
S1133010114A934207D9FB7A002B01D0032300E025
S11330200123FB6006E0FB7A002B01D0022300E0C1
S11330300023FB60064B5B6823F007020449FB682E
S113304013434B6000BF1437BD4680BC704700BFBC
S113305000000C400048E8010024F40080B582B070
S113306000AF0E4BDB6B002B14BF01230023FB715D
S11330700A4B41F67132DA63FDF788FA0346002100
S11330801846FFF79FFFFB79002B02D0034B002269
S1133090DA6300BF0837BD4680BD00BF00000C40A6
S11330A080B584B000AF786039600C4BDB6B002BCB
S11330B014BF01230023FB73084B41F67132DA631A
S11330C039687868FFF77EFFFB7B002B02D0034B47
S11330D00022DA6300BF1037BD4680BD00000C40FB
S11330E090B585B000AF78600023BB607B683B4A35
S11330F0934208D03A4A934205D04FF47561394857
S1133100FFF77EFC00E000BF786800F01BFA03467E
S1133110FB607B68314A934203D0314A934206D024
S11331200CE0314B9B6A03F00303FB600CE02E4B75
S11331309B6A9B0803F00303FB6005E040F67F7184
S11331402848FFF75DFC00BFFB68032B38D801A2B9
S113315052F823F08B310000653100006D3100001E
S113316075310000FDF7B4FAB86032E0FDF7C0FA3B
S1133170B8602EE0FDF7F0F90446FFF78DFE034634
S1133180013324FA03F3BB6023E00023BB607B68B4
S1133190124A934203D07B68114A934218D1124BCE
S11331A09A6A7B680D498B4201D1102300E01423F5
S11331B022FA03F3002B0BD0FDF792FAB86007E074
S11331C00023BB6040F6AA710648FFF719FC00E033
S11331D000BFBB6818461437BD4690BD02001E00F0
S11331E003002000506E000000800C4080B483B0C7
S11331F000AF7860094B5B6D03F00103002B07D12E
S113320000BF064B1A6D7B681340002BF9D100E018
S113321000BF0C37BD4680BC704700BF00800C4027
S113322080B582B000AF104800F08CF90346FB7003
S1133230FB78032B07D0092B09D0022B0BD1FDF708
S113324057FA78600AE0FDF743FA786006E0FDF784
S1133250A7F9786002E000237B6000BF7B68184612
S11332600837BD4680BD00BF0723260080B400AFE9
S113327000BFBD4680BC704780B400AF00BFBD46F0
S113328080BC704780B586B000AF78600B46FB7099
S113329000233B617B681B0A03F00F03013B092BEE
S11332A033D801A252F823F0E5320000EB320000DB
S11332B0D13200000B3300000B330000F132000068
S11332C0FB3200000B3300000B3300000533000019
S11332D01B4B7B611B4800F043F803461846FFF77D
S11332E0A9FD18E0184B7B6115E0184B7B6112E0D7
S11332F0174B7B6101233B610DE0164B7B6110236F
S11333003B6108E0144B7B6105E041F2DB3113487B
S1133310FFF776FB10E07B681B0B03F01F03FB60D9
S11333203B69002B02D03869FFF760FFFB781A462F
S1133330F9687869FFF7DAFC1837BD4680BD00BF2D
S113334040800C400043020008800C4044800C4044
S113335058800C4060800C4078800C40506E000017
S113336090B585B000AF78607B6803F47813B3F54B
S1133370D01F00F0AB80B3F5D01F1AD8B3F5602F7F
S113338000F0BF80B3F5602F08D8B3F5003F3CD000
S1133390B3F5802F2DD0002B27D0BEE0B3F5901FBE
S11333A03CD0B3F5B01F47D0B3F5801F00F0AD801B
S11333B0B3E0B3F5181F00F0AC80B3F5181F0AD8BA
S11333C0B3F5F01F25D0B3F5001F7AD0B3F5E01F95
S11333D000F08980A1E0B3F5301F4ED0B3F5381F5B
S11333E062D0B3F5281F35D097E0FDF7D9F8F8601F
S11333F09BE0FDF7D5F8F8604E4B9B6803F00F0394
S1133400FA6822FA03F3FB608FE0FDF7A5F8F86091
S11334108BE04948FFF764FEF86086E04648FFF712
S11334205FFEF860434B9B6E1B0903F00F03FA68C1
S113343022FA03F3FB6078E03F48FFF751FEF8609F
S11334403C4B9B6E1B0A03F00F03FA6822FA03F34A
S1133450FB606AE03848FFF743FEF860354B9B6E2B
S11334601B0B03F003041020FFF76AFC03462344FC
S1133470FA6822FA03F3FB6057E02F48FFF730FEA7
S1133480F8602C4B9B6E1B0B03F00303FA6822FAC3
S113349003F3FB60274BDB6F03F007030133FA6888
S11334A0B2FBF3F3FB6040E02348FFF719FEF8603A
S11334B0204B9B6E03F00303FA6822FA03F3FB60CC
S11334C033E01E48FFF70CFEF8602EE01B48FFF7C0
S11334D007FEF860174B1B6F03F00303FA6822FA28
S11334E003F3FB6021E01548FFF7FAFDF860114B88
S11334F01B6F1B0903F00303FA6822FA03F3FB6052
S113350013E0FFF739FDF8600FE0FFF7D5FCF86032
S11335100BE0FFF785FEF86007E00023FB6041F253
S113352001510748FFF76CFA00BFFB6818461437CF
S1133530BD4690BD00800C4002001E000300200028
S1133540506E000080B584B000AF78600123FB7337
S11335507B6803F00F03BB60BB68013B062B00F2E2
S1133560938001A252F823F085350000BB3500009A
S1133570F735000089360000893600003336000034
S113358055360000474BDB6A03F47053B3F5805F94
S113359009D0B3F5005F03D0B3F5006F06D008E09F
S11335A00223FB7308E00323FB7305E00423FB738E
S11335B002E00523FB7300BF6EE03A4B9B6A03F005
S11335C00303022B06D0032B07D0012B08D10323BE
S11335D0FB730FE00223FB730CE00623FB7309E08B
S11335E0304B9B6A03F48033002B02D00A23FB7315
S11335F000E000BF50E02B4B9B6A03F00C03082B48
S113360006D00C2B07D0042B08D10323FB730FE047
S11336100223FB730CE00623FB7309E0214B9B6A36
S113362003F48013002B02D00A23FB7300E000BFD5
S113363032E01C4B1B6803F08053002B03D0B3F122
S1133640805F03D028E00723FB7302E00923FB73A8
S113365000BF21E0134BDB6A03F46033B3F5803F12
S113366008D0B3F5003F08D0B3F5004F08D10923C3
S1133670FB7308E00223FB7305E00323FB7302E002
S11336800123FB7300BF07E00023FB7341F62811FD
S11336900548FFF7B5F900BFFB7B18461037BD4658
S11336A080BD00BF00800C40506E000080B588B023
S11336B000AF78600B46FB700323FB610323FB76AA
S11336C000233B617B6803F00F03FB60FB68013B55
S11336D0062B00F2478101A252F823F0F9360000CC
S11336E0EF370000EF37000065390000653900004E
S11336F0BD380000F3380000FB78023B082B52D899
S113370001A252F823F000BF2D3700003737000024
S11337104137000083370000A7370000A7370000B7
S1133720A7370000A73700009B3700000423FB6184
S11337300023FB763DE00323FB610123FB7638E0A5
S11337400223FB610223FB76FFF730FB03460133C0
S11337501846FFF76FFBFCF7A3FF0246864B9A421D
S113376006D9864B1B68854A43F06003136020E04A
S1133770824B1B6823F06003804A43F020031360EC
S113378017E00123FB610323FB76FFF70FFB0346DE
S113379001331846FFF74EFB0BE041F6E911784878
S11337A0FFF72EF9E4E041F6EE117548FFF728F92A
S11337B0DEE0FB7E01220121184600F0E7F8FFF766
S11337C04DFCFFF753FD6D4AFB6953626D48FFF7EB
S11337D0C7FD03461846FFF72DFBFCF7BDFEB86096
S11337E00021B868FFF75CFCFFF746FDC0E0FB78FA
S11337F0013B092B3CD801A252F823F025380000E4
S11338002B3800003B38000071380000713800008C
S11338104B38000071380000713800007138000026
S11338206738000000237B6128E001220121002089
S113383000F0ACF802237B6120E001220121012089
S113384000F0A4F801237B6118E0FCF785FEB86062
S1133850B868FFF7EFFA012204214B48FFF746FA54
S113386003237B610AE000237B6101233B6105E0C4
S113387041F699214248FFF7C3F879E0FB68022B2F
S11338800DD13E4B9B6A23F4803323F003037A6902
S11338901A433B691B04394913438B6268E0374B75
S11338A09B6A23F4801323F00C037A6992001A4371
S11338B03B691B05314913438B6259E0FB78072BA5
S11338C002D0092B07D00DE02C4B1B682B4A23F0A8
S11338D0805313600CE0294B1B68284A43F0805343
S11338E0136005E041F6F4212548FFF789F83FE02D
S11338F03EE0FB78032B13D0092B21D0022B2AD1D5
S113390001220121002000F041F81C4B40225A62A0
S113391000BF1A4BDB6A03F48033002BF9D020E09C
S113392001220121012000F031F8144B60225A6277
S113393000BF124BDB6A03F40033002BF9D010E014
S11339400E4B20225A6200BF0C4BDB6A03F4004387
S1133950002BF9D005E041F633310948FFF750F860
S113396006E005E041F629410548FFF749F800BFA4
S11339702037BD4680BD00BF0048E80100800C40F0
S1133980506E00000043020040800C4080B586B0B9
S113399000AF0346FB710B46BB7113467B71FB7989
S11339A0042B32D801A252F823F000BFF9390000E9
S11339B0EB390000CF390000C1390000DD390000C7
S11339C001233B610223FB6001237B6123E0042389
S11339D03B610823FB6003237B611CE010233B61F4
S11339E02023FB6005237B6115E040233B6180239A
S11339F0FB6007237B610EE04FF480733B614FF45F
S1133A000073FB6009237B6105E042F22F010E483D
S1133A10FEF7F6FF14E0BB79002B0ED00B4A3B698E
S1133A2013627B79002B0BD000BF79690848FFF73C
S1133A3073F90346002BF8D002E0044AFB681362D2
S1133A401837BD4680BD00BF506E000000800C409A
S1133A502C800C4080B483B000AFEFF310833B6044
S1133A603B687B6072B67B6818460C37BD4680BCE9
S1133A70704780B483B000AF78607B68002B00D1BE
S1133A8062B600BF0C37BD4680BC704780B500AF3E
S1133A90FCF762FD00BF80BD80B400AF034B4AF663
S1133AA0E8529A6000BFBD4680BC704700600C407D
S1133AB080B400AF034B0022C3F8842000BFBD468E
S1133AC080BC704700800C4080B400AF044B45F6C6
S1133AD00E02C3F8842000BFBD4680BC704700BFFF
S1133AE000800C4080B584B000AF0346FB71FB79C5
S1133AF0002B0BD12B4BDB6A2B4A13601120FFF7F1
S1133B0021FD03461A46294B1A7047E0254BD3F88A
S1133B10843003F00103FB60FFF7D6FF0023BB6092
S1133B20214B1B6803F00103BA681343BB601E4BAF
S1133B301B6803F01003BA681343BB601A4B1B687D
S1133B4003F04003BA681343BB60174B1B6803F0D0
S1133B500403BA681343BB60134B1B6803F48073FC
S1133B60BA681343BB600F4ABB6813620F4B1B78E0
S1133B70052B05D00D4B1B7819461120FFF796FD38
S1133B80094B1B6803F00103002B02D1054B0222F1
S1133B901A62FB68002B01D0FFF78AFF00BF1037C1
S1133BA0BD4680BD00800C40FC2400200025002080
S1133BB080B483B000AF174B1B699BB21B029BB24E
S1133BC003F47C53FB80134B9B691B091B0103F01B
S1133BD0F0039AB2FB881343FB800E4BDB691B098D
S1133BE003F00F039AB2FB881343FB80FB88B3F501
S1133BF0827F03D3FB88B3F5017F01D1012300E069
S1133C00002303F00103DBB218460C37BD4680BC29
S1133C10704700BFD0FF0FE080B400AF00BFBD46C7
S1133C2080BC704780B400AF00BFBD4680BC704705
S1133C3080B586B000AF0346FB71FB79002B02D040
S1133C400020FFF74FFF1F4B1B691E4A43F004037C
S1133C501361FFF7ADFF0346FB75FB7D002B11D00D
S1133C60194B1A68194B1340FB60174AFB68C2F8DA
S1133C708030154B5B6823F046033B61124A3B6975
S1133C80C2F88430FFF7C8FF30BFFFF7CBFFFB7DDE
S1133C90002B05D00C4AFB6813600B4A3B69536048
S1133CA0FB79002B02D00120FFF71CFFFB7983F086
S1133CB00103DBB2002B01D0FFF7E8FE00BF183789
S1133CC0BD4680BD00ED00E000E100E09CF1FD0098
S1133CD080B586B000AF0346FB71FB79002B02D0A0
S1133CE00020FFF7FFFE284BD3F8843003F00103D4
S1133CF07B61FFF7E9FE244B4FF420721A627B6963
S1133D00002B01D0FFF7D4FE204B1B691F4A43F060
S1133D1004031361FFF74CFF0346FB74FB7C002B89
S1133D2011D01B4B1A681B4B1340BB60184ABB686D
S1133D30C2F88030164B5B6823F04603FB60144ADC
S1133D40FB68C2F88430FFF767FF30BFFFF76AFFF4
S1133D50FB7C002B05D00E4ABB6813600C4AFB6841
S1133D605360FB79002B02D00120FFF7BBFEFB79E7
S1133D7083F00103DBB2002B01D0FFF787FE00BF05
S1133D801837BD4680BD00BF00800C4000ED00E048
S1133D9000E100E09CF1FD0080B500AF0020FFF7DA
S1133DA0A1FE00BF80BD80B500AF0120FFF79AFEE1
S1133DB000BF80BD80B584B000AF124B1B6823F0F8
S1133DC00C0343F00803BB600E4B1B6843F00C0369
S1133DD07B60FFF761FE0023FB6008E0094ABB68D3
S1133DE01360084A7B681360FB680133FB60FB685F
S1133DF0032BF3DD034ABB68136000BF1037BD46D5
S1133E0080BD00BF00600C4080B582B000AF0346A7
S1133E103960FB71FB79002B1FD0FB79012B19D082
S1133E20FB79022B13D0FB79032B0DD0FB79042BE8
S1133E3007D0FB79052B02D141F6FF730FE0002375
S1133E400DE04FF6FF730AE04FF6FF7307E04FF6FD
S1133E50FF7304E04FF6FF7301E04FF6FF733A6817
S1133E60134103F00103002B04D14FF477710A4886
S1133E70FEF7C6FD01223B6802FA03F30749FA790B
S1133E8018461346DB0013449B000B44143318609C
S1133E9000BF0837BD4680BD646E0000006000406E
S1133EA080B582B000AF03463960FB71FB79002B0B
S1133EB01FD0FB79012B19D0FB79022B13D0FB798E
S1133EC0032B0DD0FB79042B07D0FB79052B02D1F2
S1133ED041F6FF730FE000230DE04FF6FF730AE095
S1133EE04FF6FF7307E04FF6FF7304E04FF6FF73DE
S1133EF001E04FF6FF733A68134103F00103002B0E
S1133F0004D140F20B410A48FEF77AFD01223B68D6
S1133F1002FA03F30749FA7918461346DB001344FF
S1133F209B000B441033186000BF0837BD4680BDAA
S1133F30646E00000060004080B584B000AFB960DA
S1133F407B600346FB731346BB73FB7B002B1FD0C4
S1133F50FB7B012B19D0FB7B022B13D0FB7B032BA8
S1133F600DD0FB7B042B07D0FB7B052B02D141F644
S1133F70FF730FE000230DE04FF6FF730AE04FF6E6
S1133F80FF7307E04FF6FF7304E04FF6FF7301E0A1
S1133F904FF6FF73BA68134103F00103002B04D1F9
S1133FA040F21B113948FEF72BFDBB7B002B0DD0D3
S1133FB07B68002B05D0FB7BB9681846FFF770FFC0
S1133FC004E0FB7BB9681846FFF71EFFBB68072BAC
S1133FD020D82F49FA7B1346DB0013449B000B4483
S1133FE004331A68BB689B000F2101FA03F3DB4317
S1133FF01340B97BBA68920001FA02F211462448D0
S1134000FA7B19431346DB0013449B000344043337
S1134010196025E01E49FA7B1346DB0013449B001C
S11340200B4408331A68BB6803F18043083B9B00C8
S11340300F2101FA03F3DB4302EA0301BA7BBB68F5
S113404003F18043083B9B0002FA03F31048FA7B18
S113405019431346DB0013449B00034408331960DF
S1134060BB7B002B0DD17B68002B05D0FB7BB96893
S11340701846FFF715FF04E0FB7BB9681846FFF705
S1134080C3FE00BF1037BD4680BD00BFC86E000030
S11340900060004080B483B000AF786039607B6812
S11340A03A681A6300BF0C37BD4680BC704780B4C1
S11340B087B000AFF860B9607A60FB6803F10473FD
S11340C0DA00BB6813449B007B617B697A681A60E1
S11340D000BF1C37BD4680BC704780B485B000AFBC
S11340E0F860B9607A60FB681A68BB68DB431A4001
S11340F07B681A43FB681A6000BF1437BD4680BC56
S1134100704780B483B000AF786001E07B68DB69FE
S11341107B68DB6803F48073002BF7D100BF0C3796
S1134120BD4680BC7047000080B588B000AFF86021
S1134130B9607A60FB707B68002B04D14FF48A71FC
S11341405448FEF75DFC7B68002B00F09E80FB78F2
S113415003F00303FB70FB681B6823F44072FB68E5
S11341601A60F868FB781B021A464FF44071FFF797
S1134170B4FFBB68002B16D1FB68474A934204D1B5
S11341804648FFF7EDF8B8600DE0FB68444A9342F7
S113419004D14448FFF7E4F8B86004E04FF49771A1
S11341A03C48FEF72DFC4FF0FF33FB61FB681B68B6
S11341B003F00203002B10D0FB78012B07D0022B55
S11341C008D0002B00D019E0374BFB6116E0374BC9
S11341D0FB6113E0364BFB6110E0FB78012B07D049
S11341E0022B08D0002B00D008E0324BFB6105E025
S11341F0314BFB6102E0314BFB6100BFBA68FB69E4
S11342009A4204D840F263112248FEF7F9FBFB7886
S11342102B4AD35C7B617B697A6802FB03F33B61C5
S11342203B69002B05D14FF4BA711A48FEF7E8FB3D
S11342302CE07B689B00BA68D21A3B6913445A1E6F
S11342403B69B2FBF3F3013BBB61BB69002B04DAAE
S11342504FF4BD710F48FEF7D3FBBB69B3F5007F84
S113426004D340F27B110B48FEF7CAFBFB681B68C2
S113427003F00203002B04D0BB69002B01D10123FE
S1134280BB61BA69FB681A6100E000BF2037BD4614
S113429080BD00BFE06E000000A0004000B204003A
S11342A000A4004000C2040040164000C0D8A7008B
S11342B08050740180841E0040548900002D310117
S11342C0DC6E000080B582B000AF78600B46FB70F6
S11342D07B680B4A934208D07B680A4A934204D015
S11342E04FF4CA710848FEF78BFB7B68FA7800210B
S11342F01846FFF7DCFE00BF0837BD4680BD00BF8F
S113430000A0004000A40040E06E000080B582B030
S113431000AF786039607B68174A934208D07B68A5
S1134320164A934204D040F2A9111548FEF768FBDF
S11343307B6800225A6313497868FFF7ABFE7868FC
S11343403B685B7883F00103DBB21A460121FFF777
S1134350AEFE3B6859683B689A683B681B7B78688B
S1134360FFF7E2FE3B681B7819467868FFF7AAFF5F
S113437000BF0837BD4680BD00A0004000A4004037
S1134380E06E0000FFFF010080B588B000AF7860E8
S11343907B68A24A934208D07B68A14A934204D026
S11343A040F2FF119F48FEF72BFB7B689B4A934228
S11343B002D19D4BBB6109E07B68994A934202D1CB
S11343C09A4BBB6102E06FF0030314E2BB699B6884
S11343D07B617B689B6A3B613B6903F4C063002B90
S11343E014D03B6903F40073002B03D0BB69FD2296
S11343F05A7007E03B6903F48063002B02D0BB6969
S1134400FE225A70BB6909221A70DFE1BB691B786E
S1134410082B00F2C78101A252F823F041440000A6
S1134420934400001F45000075450000C745000087
S113443031460000B9460000F946000089470000F3
S11344407B695B8803F01003002B09D07B691B8810
S11344501B0A9BB203F0060343F0F003FB610EE07A
S11344607B691B8803F0FE03FB617B695B8803F0B7
S11344700203002B03D0FB6943F00103FB61BB691A
S113448001221A707B68FA695A627B6801225A60B9
S11344909CE13B6903F08003002B0DD080217868F8
S11344A0FFF7F8FDBB69FF225A70BB6908221A7036
S11344B07B6802225A607EE13B6903F04003002BD3
S11344C000F0798140217868FFF7E4FD7B695B881F
S11344D003F01003002B08D0BB6902221A707B6919
S11344E01B88DAB27B685A6265E17B695B8803F0FA
S11344F00203002B0FD0BB6907221A70BB691B791A
S11345007A69DB0013441B89012B40F054817B68DA
S113451008225A604FE1BB6905221A704AE13B69DF
S113452003F08003002B0DD080217868FFF7B2FDE3
S1134530BB69FF225A70BB6908221A707B68022289
S11345405A603AE13B6903F04003002B00F03581E7
S113455040217868FFF79EFD7B695B8803F00203C6
S1134560002B03D0BB6903221A7023E1BB69052227
S11345701A701FE17B695B8803F01003002B09D0DC
S11345807B691B881B0A9BB203F0060343F0F0030C
S1134590FB6104E07B691B8803F0FE03FB617B691C
S11345A05B8803F00403002B03D0FB6943F0010391
S11345B0FB61BB6904221A707B6801225A607B6824
S11345C0FA695A6202E13B6903F08003002B0DD0C3
S11345D080217868FFF75EFDBB69FF225A70BB69D2
S11345E008221A707B6802225A60E8E03B6903F0F3
S11345F04003002B00F0E38040217868FFF74AFD78
S11346007B695B8803F00403002B03D0BB6907229A
S11346101A70D4E0BB6905221A70CBE000A00040F8
S113462000A40040E06E00000425002010250020B6
S1134630BB695A88BB691B797969DB000B441B8908
S11346409A4224D3BB6900225A80BB691B79013387
S1134650DAB2BB691A717B695B8803F00403002B2F
S113466003D0BB6903221A70A4E07B695B8803F062
S11346700103002B04D1BB691B79012B40F2998003
S1134680BB6908221A707B6802225A609EE0BB69EB
S11346901B797A69DB0013445A68BB695B88591C2F
S11346A088B2B969488013441B781A467B685A62F9
S11346B0BB6906221A7089E03B6903F08003002B72
S11346C00DD080217868FFF7E5FCBB69FF225A70A2
S11346D0BB6908221A707B6802225A6071E03B6948
S11346E003F04003002B6CD040217868FFF7D2FC24
S11346F0BB6905221A705DE03B6903F02003002BBF
S113470061D0BB691B797A69DB0013441B89FB60A8
S11347107B68DB69FB72BB695B881A46FB68934262
S11347200ED9BB691B797A69DB0013445A68BB69EB
S11347305B88591C88B2B96948801344FA7A1A70A4
S1134740BB695B881A46FB6893420CD8FB68012B53
S113475002D17B6808225A60BB6908221A707B6800
S113476002225A602FE07B6804225A60FB68012B06
S113477029D9BB695B881A46FB68013B9A4222D15E
S11347807B6808225A601EE03B6903F48073002BA7
S11347901BD04FF480717868FFF77CFCBB69092259
S11347A01A7012E0BB69FB225A70BB6909221A70A5
S11347B00CE000BF0DE600BF08E000BF06E000BF4C
S11347C004E000BF02E000BF00E000BFBB691B784B
S11347D0092B0BD17B6800225A63BB6993F9013022
S11347E0012B05D1BB6900225A7001E0012302E0CC
S11347F0BB6993F9013018462037BD4680BD00BF20
S113480080B584B000AF786039607B68354A9342E4
S113481008D07B68344A934204D040F24B31334889
S1134820FEF7EEF83B68002B04D14FF453712F4888
S1134830FEF7E6F87B682B4A934202D12C4BFB60CF
S113484009E07B68284A934202D12A4BFB6002E0CC
S11348506FF0030342E07B689B6803F00103002BC5
S113486002D07B6820225A603B685B8803F0020315
S1134870002B03D03B681B89002B09D03B685B8865
S113488003F00403002B06D03B681B8A002B02D1E3
S11348906FF0030322E0FB6800221A70FB68012218
S11348A05A70FB6800225A80FB6800221A71FB6868
S11348B03A689A607B68C0225A607868FFF721FCE6
S11348C00D497868FFF7E6FB7B685B6B43F4FC6299
S11348D07B685A637868FFF757FD0346184610371C
S11348E0BD4680BD00A0004000A40040E06E000072
S11348F00425002010250020FFFF010080B485B0AE
S113490000AF78607B68FB60FB6893FAA3F3BB603D
S1134910BB68B3FA83F3DBB218461437BD4680BCD8
S1134920704780B487B000AFF860B9607A60FB6804
S113493003F10473DA00BB6813449B007B617B6959
S11349407A681A6000BF1C37BD4680BC70470000FF
S113495080B400AF034B00229A6000BFBD4680BC08
S1134960704700BF00600C4080B400AF034B4AF6B0
S1134970E8529A6000BFBD4680BC704700600C409E
S113498080B584B000AF03460A46FB711346BB7181
S1134990FB791846FFF7B2FFF860BB79002B14BF10
S11349A001230023DBB21A46F9680348FFF7B9FF75
S11349B000BF1037BD4680BD00A00C4080B582B05A
S11349C000AF104B01229A600F4B9B6803F0010368
S11349D07B607B68002B01D0FFF7C6FF012200211A
S11349E00A48FFF79EFF002200210848FFF799FFBD
S11349F07B68002B01D0FFF7ABFF00BF0837BD4633
S1134A0080BD00BF00A00C4000600C4024600C403E
S1134A1080B485B000AF174B5B687B600023FB60FC
S1134A200023BB601CE0144ABB68DB0013445B68D2
S1134A303B60114ABB6852F833207B681340002B5B
S1134A400BD07A683B681340002B06D10A4ABB6836
S1134A5052F83330FA681343FB60BB680133BB6020
S1134A60BB680F2BDFD9FB6818461437BD4680BCE2
S1134A70704700BF00A00C40F46E000080B584B005
S1134A8000AF78607B68002B03D146211B48FDF7FB
S1134A90B7FF1B4B5B69DBB29B00DBB203F03C034B
S1134AA0FB73174B1B699B09DBB203F00303DAB2F8
S1134AB0FB7B1343FB737B68FA7B9A70104B1B6977
S1134AC0DBB203F03F03DAB27B685A700C4B9B698C
S1134AD01B09DBB21B01FB73094BDB691B09DBB24E
S1134AE003F00F03DAB2FB7B1343FB737B68FA7B9F
S1134AF01A7000BF1037BD4680BD00BF746F000040
S1134B00D0FF0FE080B483B000AF0346FB7197F988
S1134B100730002B0BDBFB7903F01F02064997F9E2
S1134B2007305B09012000FA02F241F8232000BF9C
S1134B300C37BD4680BC704700E100E080B483B010
S1134B4000AF0346FB7197F90730002B0CDBFB79B0
S1134B5003F01F02074997F907305B09012000FAA7
S1134B6002F2603341F8232000BF0C37BD4680BCFD
S1134B70704700BF00E100E080B483B000AF03469B
S1134B803960FB7197F90730002B0ADB3B68DAB216
S1134B900C4997F907305201D2B20B4483F8002331
S1134BA00AE03B68DAB20849FB7903F00F03043BDF
S1134BB05201D2B20B441A7600BF0C37BD4680BCFA
S1134BC0704700BF00E100E000ED00E080B483B076
S1134BD000AF7860034A7B68136300BF0C37BD469F
S1134BE080BC70470010084080B483B000AF786088
S1134BF0054B5A6B7B68DB43034913404B6300BF8F
S1134C000C37BD4680BC70470010084080B483B0A8
S1134C1000AF7860054B5A6B04497B6813434B63C0
S1134C2000BF0C37BD4680BC704700BF0010084071
S1134C3080B500AFFBF7BEFD00BF80BD80B584B07A
S1134C4000AF0020FEF72CF8024632239A420AD025
S1134C500020FDF7E1FF322319460020FEF704F897
S1134C600120FDF7D9FF0720FFF7B0FFEFF3118212
S1134C704FF0BF0383F31188BFF36F8FBFF34F8FE0
S1134C80BA607B60FCF78AFFF860FB68002B07D0F2
S1134C90084B4FF080521A60BFF34F8FBFF36F8FF2
S1134CA000233B603B6883F3118800BF1037BD4687
S1134CB080BD00BF04ED00E0B0B586B000AF1D4B71
S1134CC03C1D1D460FCD0FC42B68236001211A48DB
S1134CD0FEF7D8FA00210220FFF752FE02237B716F
S1134CE04FF440533B810123FB6001237B753B1D43
S1134CF01846FDF705FF0220FFF776FFFF211F206E
S1134D00FFF73AFF1F20FFF719FF1F20FFF7FAFEF6
S1134D10322319460020FDF7A7FF0220FFF756FFB4
S1134D200220FFF773FFFDF7D1FF00BF1837BD4620
S1134D30B0BD00BF8C6F00000043020080B400AF20
S1134D40034BDB6C1B0EDBB21846BD4680BC7047C0
S1134D50B081E00F80B582B000AF0E4B01221A641F
S1134D60FFF7ECFF0346FB713B1D1846FFF786FE79
S1134D70FB790F2B0AD93B79022B07D9064B1B6809
S1134D8023F05003044A43F01003136000BF0837B4
S1134D90BD4680BD00000C40C0800C4080B58AB088
S1134DA000AF7860012387F82130F22387F82030A0
S1134DB097F8203097F821201146184600F074FA2D
S1134DC04723FB77F423BB77BB7FFA7F1146184652
S1134DD000F06AFA07F1170297F8203011461846D6
S1134DE000F0B6FA07F11702BB7F1146184600F02F
S1134DF0AFFAFA237B7707F116027B7F1146184638
S1134E0000F0A6FAFB237B7707F115027B7F11469E
S1134E10184600F09DFAFC237B7707F114027B7F90
S1134E201146184600F094FA0023BB61BB7D1B03B6
S1134E301A46BB691343BB61BB7D1B011A46BB69A0
S1134E401343BB61BB7D1A46BB691343BB61892312
S1134E507B7707F117027B7F1146184600F078FA3A
S1134E60FB7D1B021AB2B7F9263013431BB2FB8435
S1134E7088237B7707F117027B7F1146184600F0E1
S1134E8067FAFB7D9AB2FB8C1343FB848B237B77FD
S1134E9007F117027B7F1146184600F059FAFB7D93
S1134EA01B021AB2B7F9243013431BB2BB848A2302
S1134EB07B7707F117027B7F1146184600F048FA0A
S1134EC0FB7D9AB2BB8C1343BB848D237B7707F1A4
S1134ED017027B7F1146184600F03AFAFB7D1B024D
S1134EE01AB2B7F9223013431BB27B848C237B772D
S1134EF007F117027B7F1146184600F029FAFB7D63
S1134F009AB27B8C13437B84BB69BB60FB8CBB81F3
S1134F10BB8CFB817B8C3B82044B186807F1080136
S1134F2000230022FCF756F854E700BF7C2500203C
S1134F302DE9B04390B000AF78604FF00003704C9F
S1134F40C7E90C344FF000036E4CC7E90A346E4BCA
S1134F50186807F10C0100230022FCF793F90346BB
S1134F60002BF4D0FB68184600F09AFB4FF00002C7
S1134F70664B00F039FD03460C4625461C463B8A29
S1134F80184600F08DFB4FF00002614B00F02CFD41
S1134F9002460B462046294600F044FA03460C46D6
S1134FA025461C467B8A184600F07AFB02460B46CF
S1134FB02046294600F0EEFB03460C46C7E90834B8
S1134FC0FB68184600F06CFB4FF000024FF0824380
S1134FD000F00AFD03460C4625461C463B8A18464B
S1134FE000F05EFB4FF000024A4B00F0FDFC02466D
S1134FF00B462046294600F015FA03460C46254682
S11350001C46FB68184600F04BFB4FF000024FF0C3
S1135010824300F0E9FC02460B46904699463B8ADF
S1135020184600F03DFB4FF000023A4B00F0DCFC68
S113503002460B464046494600F0F4F902460B4648
S11350402046294600F0A6FB03460C4625461C468E
S1135050BB8A184600F024FB02460B46204629462C
S113506000F098FB03460C46C7E90634D7E906234B
S1135070D7E9080100F0D8F903460C461846214642
S11350804FF00002244B00F0AFFC03460C46C7E986
S11350900E34D7E90C23D7E90E0100F0EDFD0346E9
S11350A0002B03D0D7E90C34C7E90E34D7E90A231F
S11350B0D7E90E0100F0FEFD0346002B03D0D7E92B
S11350C00A34C7E90E3400F063FE0146134B83FB38
S11350D001230B445A11CB17D21A13469B001344D5
S11350E0DA00D21A8A1A02F10A03BB600C4B186860
S11350F007F1080100230022FBF76CFF27E700BF3C
S1135100000024C0008051407C2500200000D040D5
S1135110000090400000C0400000B440EBA00EEA44
S11351208025002080B584B000AF7860104B1868EB
S113513007F10C0100230022FCF7A4F80346002B1E
S1135140F4D0FB68182B06DC0120FBF7A1F9002042
S1135150FBF7BEF905E00020FBF79AF90120FBF705
S1135160B7F9FB681946034800F0FAFDDEE700BF13
S113517080250020A06F000080B584B002AFFFF747
S1135180E9FDFBF759F9FBF729F8EE2000F04EF89A
S11351900023FB7100F028F900210020FBF7D8FA66
S11351A000220C210120FBF7BFFE0246174B1A60B8
S11351B0002208210120FBF7B7FE0246144B1A60B7
S11351C000230193012300930123962211491248DD
S11351D0FCF7C0FA002301930123009301239622D4
S11351E00E490F48FCF7B6FA0023019301230093FC
S11351F0012396220B490C48FCF7ACFAFCF7D2FBCE
S1135200002318460837BD4680BD00BF7C2500201A
S113521080250020B46F00009D4D0000C06F000089
S1135220314F0000D06F00002551000090B587B0C9
S113523000AF0346FB71032200210120FBF774FE3B
S11352400246144B1A60144B07F108040FCB84E890
S11352500F0001211148FEF715F80123082204214B
S11352600220FEF769FE0123082205210220FEF731
S113527063FE0B4B03229A6307F10803194608489F
S1135280FFF744F8074AFB79137000BF1C37BD468B
S113529090BD00BF84250020DC6F000000C2040024
S11352A000A400401C25002080B58AB000AF03464E
S11352B00A46FB711346BB71224B1B68002B3DD081
S11352C0204B1868002300220021FBF7DBFF034674
S11352D0012B33D1002387F826301B4B1B789BB25C
S11352E03B8201237B82FB793B73BB797B7307F1A0
S11352F00C037B6102233B8307F110031946134817
S1135300FFF77EFA034687F8273005E00F48FFF7DA
S11353103BF8034687F8273097F92730012BF5D05F
S113532097F92730002B03D0002387F8263002E0BA
S1135330012387F8263097F82630FFE718462837E8
S1135340BD4680BD842500201C25002000A400400B
S113535080B58AB000AF03463960FB711F4B1B68F0
S1135360002B37D01D4B1868002300220021FBF7C7
S113537089FF0346012B2DD1194B1B789BB23B822D
S113538004237B82FB1D7B6101233B8307F10C0318
S1135390FB6101233B8407F1100319461148FFF711
S11353A02FFA034687F8273005E00E48FEF7ECFF96
S11353B0034687F8273097F92730012BF5D097F962
S11353C02730002B01D0002304E03A7B3B681A709D
S11353D00123FFE718462837BD4680BD84250020F9
S11353E01C25002000A4004080B582B000AFFB1D46
S11353F01946D020FFF7ACFFFB791946064800F0A8
S1135400AFFCFB79602B01D1012300E00023184697
S11354100837BD4680BD00BFEC6F000081F000413D
S113542002E000BF83F0004330B54FEA41044FEA85
S1135430430594EA050F08BF90EA020F1FBF54EA20
S1135440000C55EA020C7FEA645C7FEA655C00F0BC
S1135450E2804FEA5454D4EB5555B8BF6D420CDD8D
S11354602C4480EA020281EA030382EA000083EA10
S1135470010180EA020281EA0303362D88BF30BDB0
S113548011F0004F4FEA01314FF4801C4CEA113106
S113549002D0404261EB410113F0004F4FEA033365
S11354A04CEA133302D0524263EB430394EA050FF0
S11354B000F0A780A4F10104D5F1200E0DDB02FA5F
S11354C00EFC22FA05F2801841F1000103FA0EF2F3
S11354D0801843FA05F359410EE0A5F120050EF1B9
S11354E0200E012A03FA0EFC28BF4CF0020C43FAEA
S11354F005F3C01851EBE37101F0004507D54FF0F7
S1135500000EDCF1000C7EEB00006EEB0101B1F546
S1135510801F1BD3B1F5001F0CD349085FEA30008C
S11355204FEA3C0C04F101044FEA445212F5800F97
S113553080F09A80BCF1004F08BF5FEA500C50F134
S1135540000041EB045141EA050130BD5FEA4C0C17
S1135550404141EB010111F4801FA4F10104E9D1A0
S113556091F0000F04BF01460020B1FA81F308BF97
S11355702033A3F10B03B3F120020CDA0C3208DD63
S113558002F1140CC2F10C0201FA0CF021FA02F13E
S11355900CE002F11402D8BFC2F1200C01FA02F1AE
S11355A020FA0CFCDCBF41EA0C019040E41AA2BFD3
S11355B001EB0451294330BD6FEA04041F3C1CDA9B
S11355C00C340EDC04F11404C4F1200220FA04F0BB
S11355D001FA02F340EA030021FA04F345EA030165
S11355E030BDC4F10C04C4F1200220FA02F001FA27
S11355F004F340EA0300294630BD21FA04F02946A9
S113560030BD94F0000F83F4801306BF81F4801141
S11356100134013D4EE77FEA645C18BF7FEA655CB4
S113562029D094EA050F08BF90EA020F05D054EA86
S1135630000C04BF1946104630BD91EA030F1EBF8B
S11356400021002030BD5FEA545C05D1400049418F
S113565028BF41F0004130BD14F580043CBF01F582
S1135660801130BD01F0004545F0FE4141F4700168
S11356704FF0000030BD7FEA645C1ABF1946104643
S11356807FEA655C1CBF0B46024650EA013406BF44
S113569052EA033591EA030F41F4002130BD00BF03
S11356A090F0000F04BF0021704730B54FF48064C0
S11356B004F132044FF000054FF0000150E700BF41
S11356C090F0000F04BF0021704730B54FF48064A0
S11356D004F1320410F0004548BF40424FF000018D
S11356E03EE700BF42004FEAE2014FEA31014FEAD0
S11356F002701FBF12F07F4393F07F4F81F060511F
S1135700704732F07F4208BF704793F07F4F04BF69
S113571041F40021704730B54FF4607401F0004546
S113572021F000411CE700BF50EA010208BF7047A6
S113573030B54FF000050AE050EA010208BF704797
S113574030B511F0004502D5404261EB41014FF400
S1135750806404F132045FEA915C3FF4D8AE4FF008
S113576003025FEADC0C18BF03325FEADC0C18BFEB
S1135770033202EBDC02C2F1200300FA03FC20FA3C
S113578002F001FA03FE40EA0E0021FA02F1144489
S1135790BDE600BF70B54FF0FF0C4CF4E06C1CEAA2
S11357A011541DBF1CEA135594EA0C0F95EA0C0F13
S11357B000F0DEF82C4481EA030621EA4C5123EA86
S11357C04C5350EA013518BF52EA033541F48011B5
S11357D043F4801338D0A0FB02CE4FF00005E1FB68
S11357E002E506F00042E0FB03E54FF00006E1FBB2
S11357F003569CF0000F18BF4EF0010EA4F1FF04F5
S1135800B6F5007F64F5407404D25FEA4E0E6D4134
S113581046EB060642EAC62141EA55514FEAC52045
S113582040EA5E504FEACE2EB4F1FD0C88BFBCF5C1
S1135830E06F1ED8BEF1004F08BF5FEA500E50F172
S1135840000041EB045170BD06F0004646EA010138
S113585040EA020081EA0301B4EB5C04C2BFD4EB6A
S11358600C0541EA045170BD41F480114FF0000E63
S1135870013C00F3AB8014F1360FDEBF002001F0D1
S1135880004170BDC4F10004203C35DA0C341BDC4B
S113589004F11404C4F1200500FA05F320FA04F01D
S11358A001FA05F240EA020001F0004221F0004151
S11358B010EBD37021FA04F642EB06015EEA430EC4
S11358C008BF20EAD37070BDC4F10C04C4F12005F4
S11358D000FA04F320FA05F001FA04F240EA0200A7
S11358E001F0004110EBD37041F100015EEA430E78
S11358F008BF20EAD37070BDC4F1200500FA05F298
S11359004EEA020E20FA04F301FA05F243EA020316
S113591021FA04F001F0004121FA04F220EA020025
S113592000EBD3705EEA430E08BF20EAD37070BD6B
S113593094F0000F0FD101F00046400041EB01014B
S113594011F4801F08BF013CF7D041EA060195F02D
S1135950000F18BF704703F00046520043EB0303E7
S113596013F4801F08BF013DF7D043EA06037047D4
S113597094EA0C0F0CEA135518BF95EA0C0F0CD0DF
S113598050EA410618BF52EA4306D1D181EA030125
S113599001F000414FF0000070BD50EA410606BF1F
S11359A01046194652EA430619D094EA0C0F02D164
S11359B050EA013613D195EA0C0F05D152EA0336A9
S11359C01CBF104619460AD181EA030101F00041C7
S11359D041F0FE4141F470014FF0000070BD41F010
S11359E0FE4141F4780170BD70B54FF0FF0C4CF4EA
S11359F0E06C1CEA11541DBF1CEA135594EA0C0F09
S1135A0095EA0C0F00F0A7F8A4EB050481EA030E55
S1135A1052EA03354FEA013100F088804FEA03333C
S1135A204FF0805545EA131343EA12634FEA02220A
S1135A3045EA111545EA10654FEA00260EF00041CB
S1135A409D4208BF964244F1FD0404F5407402D21D
S1135A505B084FEA3202B61A65EB03055B084FEAAE
S1135A6032024FF480104FF4002CB6EB020E75EBAB
S1135A70030E22BFB61A754640EA0C005B084FEAD3
S1135A803202B6EB020E75EB030E22BFB61A754650
S1135A9040EA5C005B084FEA3202B6EB020E75EB9B
S1135AA0030E22BFB61A754640EA9C005B084FEA13
S1135AB03202B6EB020E75EB030E22BFB61A754620
S1135AC040EADC0055EA060E18D04FEA051545EA0F
S1135AD016754FEA06164FEAC30343EA52734FEAB8
S1135AE0C2025FEA1C1CC0D111F4801F0BD141EA31
S1135AF000014FF000004FF0004CB6E711F4801F96
S1135B0004BF01430020B4F1FD0C88BFBCF5E06F75
S1135B103FF6AFAEB5EB030C04BFB6EB020C5FEA85
S1135B20500C50F1000041EB045170BD0EF0004EDA
S1135B304EEA113114EB5C04C2BFD4EB0C0541EA0C
S1135B40045170BD41F480114FF0000E013C90E609
S1135B5045EA060E8DE60CEA135594EA0C0F08BFCD
S1135B6095EA0C0F3FF43BAF94EA0C0F0AD150EACC
S1135B7001347FF434AF95EA0C0F7FF425AF10465F
S1135B8019462CE795EA0C0F06D152EA03353FF487
S1135B90FDAE1046194622E750EA410618BF52EA04
S1135BA043067FF4C5AE50EA41047FF40DAF52EAD8
S1135BB043057FF4EBAE12E74FF0FF3C06E000BF75
S1135BC04FF0010C02E000BF4FF0010C4DF804CD82
S1135BD04FEA410C7FEA6C5C4FEA430C18BF7FEA42
S1135BE06C5C1BD001B050EA410C0CBF52EA430C70
S1135BF091EA030F02BF90EA020F0020704710F1F0
S1135C00000F91EA030F58BF994208BF90422CBF7E
S1135C10D8176FEAE37040F0010070474FEA410C77
S1135C207FEA6C5C02D150EA013C07D14FEA430C95
S1135C307FEA6C5CD6D152EA033CD3D05DF8040B06
S1135C40704700BF8446104662468C461946634638
S1135C5000E000BF01B5FFF7B7FF002848BF10F10F
S1135C60000F01BD4DF808EDFFF7F4FF0CBF012054
S1135C7000205DF808FB00BF4DF808EDFFF7EAFFD0
S1135C8034BF012000205DF808FB00BF4DF808ED8B
S1135C90FFF7E0FF94BF012000205DF808FB00BF80
S1135CA04DF808EDFFF7CEFF94BF012000205DF80A
S1135CB008FB00BF4DF808EDFFF7C4FF34BF012017
S1135CC000205DF808FB00BF08B5074B044613B17C
S1135CD00021AFF30080054B1868836A03B198472D
S1135CE0204600F09BFF00BF00000000F86F00009A
